:0300000002007E7D
:03000600020003F2
:0300030002005D9B
:200009007832760078407661783F76017832E6600512013980F278407932E6F77840B67A1F
:20002900067840766180E178400680DC758920758DFA759850D28E783F76027832E670059C
:2000490012013980F6C299783286993099FD7832760080E7783F7600783276007840766188
:1C006900759900758DFA9000091200BB9000351200BB02017902008522222222EE
:20008500782C7600782CB60400500D782CE62424F87600782C0680EC90005D1200BBE5820F
:2000A5007828F67828E62420F98781D0D0D083D082D0F0D0E022782C7600782CB60400503B
:2000C5000E782CE62424F9E76005782C0680EB782CB604047582FF22782C7600782CB604EF
:2000E50000500E782CE62424F9E76005782C0680EB782AA681782CE62424F87601782CE6DD
:20010500C454F0243FF581782C8607782BEFC40354F8F6C082C0837400C0E0C0E0C0E0C094
:20012500E0C02B782CE62420F8A681782A8681782C868222C0E0C0F0C082C083C0D0C2D490
:20014500C2D37828E62420F8A6817828B603067828760080037828067828E62424F9E76070
:20016500E97828E62420F98781D0D0D083D082D0F0D0E0227828E62424F876007828E62409
:2001850024F9E770107828B603067828760080EC78280680E77828E62420F98781D0D0D0AD
:0801A50083D082D0F0D0E022EB
:00000001FF
